{
  "_format": "hh-sol-artifact-1",
  "contractName": "CoinFlip",
  "sourceName": "contracts/CoinFlip.sol",
  "abi": [
    {
      "anonymous": false,
      "inputs": [
        {
          "indexed": false,
          "internalType": "uint256",
          "name": "gameId",
          "type": "uint256"
        },
        {
          "indexed": false,
          "internalType": "uint256",
          "name": "pickingSide",
          "type": "uint256"
        }
      ],
      "name": "GameAccepted",
      "type": "event"
    },
    {
      "anonymous": false,
      "inputs": [
        {
          "indexed": false,
          "internalType": "uint256",
          "name": "gameId",
          "type": "uint256"
        },
        {
          "indexed": true,
          "internalType": "address",
          "name": "initializer",
          "type": "address"
        },
        {
          "indexed": true,
          "internalType": "address",
          "name": "opponent",
          "type": "address"
        },
        {
          "indexed": false,
          "internalType": "uint256",
          "name": "betAmount",
          "type": "uint256"
        }
      ],
      "name": "GameCreated",
      "type": "event"
    },
    {
      "anonymous": false,
      "inputs": [
        {
          "indexed": false,
          "internalType": "uint256",
          "name": "gameId",
          "type": "uint256"
        },
        {
          "indexed": true,
          "internalType": "address",
          "name": "winner",
          "type": "address"
        }
      ],
      "name": "GameFinished",
      "type": "event"
    },
    {
      "inputs": [
        {
          "internalType": "uint256",
          "name": "_gameId",
          "type": "uint256"
        }
      ],
      "name": "acceptGame",
      "outputs": [],
      "stateMutability": "payable",
      "type": "function"
    },
    {
      "inputs": [
        {
          "internalType": "uint256",
          "name": "",
          "type": "uint256"
        }
      ],
      "name": "allGames",
      "outputs": [
        {
          "internalType": "uint256",
          "name": "gameId",
          "type": "uint256"
        },
        {
          "internalType": "address",
          "name": "initializer",
          "type": "address"
        },
        {
          "internalType": "address",
          "name": "opponent",
          "type": "address"
        },
        {
          "internalType": "uint256",
          "name": "betAmount",
          "type": "uint256"
        },
        {
          "internalType": "enum CoinFlip.GameStatus",
          "name": "status",
          "type": "uint8"
        },
        {
          "internalType": "uint256",
          "name": "pickingSide",
          "type": "uint256"
        },
        {
          "internalType": "address",
          "name": "winner",
          "type": "address"
        }
      ],
      "stateMutability": "view",
      "type": "function"
    },
    {
      "inputs": [
        {
          "internalType": "address",
          "name": "_opponent",
          "type": "address"
        }
      ],
      "name": "createGame",
      "outputs": [],
      "stateMutability": "payable",
      "type": "function"
    },
    {
      "inputs": [
        {
          "internalType": "uint256",
          "name": "_gameId",
          "type": "uint256"
        },
        {
          "internalType": "uint256",
          "name": "_coinSide",
          "type": "uint256"
        }
      ],
      "name": "flipCoin",
      "outputs": [],
      "stateMutability": "nonpayable",
      "type": "function"
    },
    {
      "inputs": [],
      "name": "totalGameCount",
      "outputs": [
        {
          "internalType": "uint256",
          "name": "",
          "type": "uint256"
        }
      ],
      "stateMutability": "view",
      "type": "function"
    }
  ],
  "bytecode": "0x6080604052348015600f57600080fd5b506113a18061001f6000396000f3fe60806040526004361061004a5760003560e01c8063474d0b5a1461004f578063605bd5ff1461006b578063999d2453146100875780639c82dd1f146100b0578063a0b55095146100db575b600080fd5b61006960048036038101906100649190610b46565b61011e565b005b61008560048036038101906100809190610ba9565b61041e565b005b34801561009357600080fd5b506100ae60048036038101906100a99190610bd6565b61067c565b005b3480156100bc57600080fd5b506100c56109d7565b6040516100d29190610c25565b60405180910390f35b3480156100e757600080fd5b5061010260048036038101906100fd9190610ba9565b6109dd565b6040516101159796959493929190610cc6565b60405180910390f35b60003411610161576040517f08c379a000000000000000000000000000000000000000000000000000000000815260040161015890610db8565b60405180910390fd5b3373ffffffffffffffffffffffffffffffffffffffff168173ffffffffffffffffffffffffffffffffffffffff16036101cf576040517f08c379a00000000000000000000000000000000000000000000000000000000081526004016101c690610e24565b60405180910390fd5b6000808154809291906101e190610e73565b919050555060006040518060e0016040528060005481526020013373ffffffffffffffffffffffffffffffffffffffff1681526020018373ffffffffffffffffffffffffffffffffffffffff1681526020013481526020016000600381111561024d5761024c610c4f565b5b815260200160008152602001600073ffffffffffffffffffffffffffffffffffffffff1681525090508060016000805481526020019081526020016000206000820151816000015560208201518160010160006101000a81548173ffffffffffffffffffffffffffffffffffffffff021916908373ffffffffffffffffffffffffffffffffffffffff16021790555060408201518160020160006101000a81548173ffffffffffffffffffffffffffffffffffffffff021916908373ffffffffffffffffffffffffffffffffffffffff1602179055506060820151816003015560808201518160040160006101000a81548160ff0219169083600381111561035857610357610c4f565b5b021790555060a0820151816005015560c08201518160060160006101000a81548173ffffffffffffffffffffffffffffffffffffffff021916908373ffffffffffffffffffffffffffffffffffffffff1602179055509050508173ffffffffffffffffffffffffffffffffffffffff163373ffffffffffffffffffffffffffffffffffffffff167f6200407c0ea392b8107b21a9be480acd41fda186d04bed28cc7da2d4b53d56e260005434604051610412929190610ebb565b60405180910390a35050565b600060016000838152602001908152602001600020905060008160010160009054906101000a900473ffffffffffffffffffffffffffffffffffffffff16905060008260020160009054906101000a900473ffffffffffffffffffffffffffffffffffffffff16905060008360000154036104ce576040517f08c379a00000000000000000000000000000000000000000000000000000000081526004016104c590610f30565b60405180910390fd5b600060038111156104e2576104e1610c4f565b5b8360040160009054906101000a900460ff16600381111561050657610505610c4f565b5b14610546576040517f08c379a000000000000000000000000000000000000000000000000000000000815260040161053d90610f9c565b60405180910390fd5b8073ffffffffffffffffffffffffffffffffffffffff163373ffffffffffffffffffffffffffffffffffffffff16146105b4576040517f08c379a00000000000000000000000000000000000000000000000000000000081526004016105ab9061102e565b60405180910390fd5b826003015434146105fa576040517f08c379a00000000000000000000000000000000000000000000000000000000081526004016105f1906110c0565b60405180910390fd5b6106048282610a8c565b836005018190555060018360040160006101000a81548160ff0219169083600381111561063457610633610c4f565b5b02179055507f69605db3b6fa8bc355d82e8c3ce84fc2805145c317d15b9de8b45839f440e2a684846005015460405161066e929190610ebb565b60405180910390a150505050565b600181148061068b5750600281145b6106ca576040517f08c379a00000000000000000000000000000000000000000000000000000000081526004016106c19061112c565b60405180910390fd5b60006001600084815260200190815260200160002090506000816000015403610728576040517f08c379a000000000000000000000000000000000000000000000000000000000815260040161071f90610f30565b60405180910390fd5b6001600381111561073c5761073b610c4f565b5b8160040160009054906101000a900460ff1660038111156107605761075f610c4f565b5b146107a0576040517f08c379a000000000000000000000000000000000000000000000000000000000815260040161079790610f9c565b60405180910390fd5b60008160010160009054906101000a900473ffffffffffffffffffffffffffffffffffffffff16905060008260020160009054906101000a900473ffffffffffffffffffffffffffffffffffffffff169050600080600185600501541461080857828461080b565b83835b9150915060018560050154146108215782610823565b835b73ffffffffffffffffffffffffffffffffffffffff163373ffffffffffffffffffffffffffffffffffffffff1614610890576040517f08c379a0000000000000000000000000000000000000000000000000000000008152600401610887906111be565b60405180910390fd5b6000600286600301546108a391906111de565b905060006108b18686610a8c565b905060008882146108c257836108c4565b845b90508073ffffffffffffffffffffffffffffffffffffffff166108fc849081150290604051600060405180830381858888f1935050505015801561090c573d6000803e3d6000fd5b50808860060160006101000a81548173ffffffffffffffffffffffffffffffffffffffff021916908373ffffffffffffffffffffffffffffffffffffffff16021790555060028860040160006101000a81548160ff0219169083600381111561097857610977610c4f565b5b02179055508073ffffffffffffffffffffffffffffffffffffffff167fb7f35e624e036288272fbf3342c09219261ff29fdddd826989b289134e9ae5358b6040516109c39190610c25565b60405180910390a250505050505050505050565b60005481565b60016020528060005260406000206000915090508060000154908060010160009054906101000a900473ffffffffffffffffffffffffffffffffffffffff16908060020160009054906101000a900473ffffffffffffffffffffffffffffffffffffffff16908060030154908060040160009054906101000a900460ff16908060050154908060060160009054906101000a900473ffffffffffffffffffffffffffffffffffffffff16905087565b60008042448585604051602001610aa69493929190611289565b6040516020818303038152906040528051906020012060001c90506001600282610ad09190611306565b610ada9190611337565b91505092915050565b600080fd5b600073ffffffffffffffffffffffffffffffffffffffff82169050919050565b6000610b1382610ae8565b9050919050565b610b2381610b08565b8114610b2e57600080fd5b50565b600081359050610b4081610b1a565b92915050565b600060208284031215610b5c57610b5b610ae3565b5b6000610b6a84828501610b31565b91505092915050565b6000819050919050565b610b8681610b73565b8114610b9157600080fd5b50565b600081359050610ba381610b7d565b92915050565b600060208284031215610bbf57610bbe610ae3565b5b6000610bcd84828501610b94565b91505092915050565b60008060408385031215610bed57610bec610ae3565b5b6000610bfb85828601610b94565b9250506020610c0c85828601610b94565b9150509250929050565b610c1f81610b73565b82525050565b6000602082019050610c3a6000830184610c16565b92915050565b610c4981610b08565b82525050565b7f4e487b7100000000000000000000000000000000000000000000000000000000600052602160045260246000fd5b60048110610c8f57610c8e610c4f565b5b50565b6000819050610ca082610c7e565b919050565b6000610cb082610c92565b9050919050565b610cc081610ca5565b82525050565b600060e082019050610cdb600083018a610c16565b610ce86020830189610c40565b610cf56040830188610c40565b610d026060830187610c16565b610d0f6080830186610cb7565b610d1c60a0830185610c16565b610d2960c0830184610c40565b98975050505050505050565b600082825260208201905092915050565b7f42657420616d6f756e74206d7573742062652067726561746572207468616e2060008201527f3000000000000000000000000000000000000000000000000000000000000000602082015250565b6000610da2602183610d35565b9150610dad82610d46565b604082019050919050565b60006020820190508181036000830152610dd181610d95565b9050919050565b7f596f752063616e6e6f7420706c617920616761696e737420796f757273656c66600082015250565b6000610e0e602083610d35565b9150610e1982610dd8565b602082019050919050565b60006020820190508181036000830152610e3d81610e01565b9050919050565b7f4e487b7100000000000000000000000000000000000000000000000000000000600052601160045260246000fd5b6000610e7e82610b73565b91507fffffffffffffffffffffffffffffffffffffffffffffffffffffffffffffffff8203610eb057610eaf610e44565b5b600182019050919050565b6000604082019050610ed06000830185610c16565b610edd6020830184610c16565b9392505050565b7f47616d6520646f6573206e6f7420657869737400000000000000000000000000600082015250565b6000610f1a601383610d35565b9150610f2582610ee4565b602082019050919050565b60006020820190508181036000830152610f4981610f0d565b9050919050565b7f496e76616c69642067616d652073746174757300000000000000000000000000600082015250565b6000610f86601383610d35565b9150610f9182610f50565b602082019050919050565b60006020820190508181036000830152610fb581610f79565b9050919050565b7f4f6e6c79207468652064657369676e61746564206f70706f6e656e742063616e60008201527f20706c6179000000000000000000000000000000000000000000000000000000602082015250565b6000611018602583610d35565b915061102382610fbc565b604082019050919050565b600060208201905081810360008301526110478161100b565b9050919050565b7f42657420616d6f756e74206d757374206d617463682074686520696e6974696160008201527f6c697a6572277320626574000000000000000000000000000000000000000000602082015250565b60006110aa602b83610d35565b91506110b58261104e565b604082019050919050565b600060208201905081810360008301526110d98161109d565b9050919050565b7f496e76616c696420636f696e2073696465000000000000000000000000000000600082015250565b6000611116601183610d35565b9150611121826110e0565b602082019050919050565b6000602082019050818103600083015261114581611109565b9050919050565b7f4f6e6c79207468652070726564657465726d696e6564207069636b696e67207360008201527f6964652063616e20666c69702074686520636f696e0000000000000000000000602082015250565b60006111a8603583610d35565b91506111b38261114c565b604082019050919050565b600060208201905081810360008301526111d78161119b565b9050919050565b60006111e982610b73565b91506111f483610b73565b925082820261120281610b73565b9150828204841483151761121957611218610e44565b5b5092915050565b6000819050919050565b61123b61123682610b73565b611220565b82525050565b60008160601b9050919050565b600061125982611241565b9050919050565b600061126b8261124e565b9050919050565b61128361127e82610b08565b611260565b82525050565b6000611295828761122a565b6020820191506112a5828661122a565b6020820191506112b58285611272565b6014820191506112c58284611272565b60148201915081905095945050505050565b7f4e487b7100000000000000000000000000000000000000000000000000000000600052601260045260246000fd5b600061131182610b73565b915061131c83610b73565b92508261132c5761132b6112d7565b5b828206905092915050565b600061134282610b73565b915061134d83610b73565b925082820190508082111561136557611364610e44565b5b9291505056fea26469706673582212204c633df82eee43c358e7f8e0d297df2dd18e98f50cc53c8eb87b79cf7f15f6e564736f6c634300081b0033",
  "linkReferences": {},
  "deployedLinkReferences": {}
}