{
  "_format": "hh-sol-artifact-1",
  "contractName": "CoinFlip",
  "sourceName": "contracts/CoinFlip.sol",
  "abi": [
    {
      "anonymous": false,
      "inputs": [
        {
          "indexed": true,
          "internalType": "uint256",
          "name": "gameId",
          "type": "uint256"
        },
        {
          "indexed": true,
          "internalType": "uint256",
          "name": "pickingSide",
          "type": "uint256"
        }
      ],
      "name": "GameAccepted",
      "type": "event"
    },
    {
      "anonymous": false,
      "inputs": [
        {
          "indexed": true,
          "internalType": "uint256",
          "name": "gameId",
          "type": "uint256"
        }
      ],
      "name": "GameCancelled",
      "type": "event"
    },
    {
      "anonymous": false,
      "inputs": [
        {
          "indexed": true,
          "internalType": "uint256",
          "name": "gameId",
          "type": "uint256"
        },
        {
          "indexed": true,
          "internalType": "address",
          "name": "initializer",
          "type": "address"
        },
        {
          "indexed": true,
          "internalType": "address",
          "name": "opponent",
          "type": "address"
        },
        {
          "indexed": false,
          "internalType": "uint256",
          "name": "betAmount",
          "type": "uint256"
        },
        {
          "indexed": false,
          "internalType": "uint256",
          "name": "createdAt",
          "type": "uint256"
        }
      ],
      "name": "GameCreated",
      "type": "event"
    },
    {
      "anonymous": false,
      "inputs": [
        {
          "indexed": true,
          "internalType": "uint256",
          "name": "gameId",
          "type": "uint256"
        },
        {
          "indexed": true,
          "internalType": "address",
          "name": "winner",
          "type": "address"
        }
      ],
      "name": "GameFinished",
      "type": "event"
    },
    {
      "inputs": [],
      "name": "GAME_EXPIRATION_TIME",
      "outputs": [
        {
          "internalType": "uint256",
          "name": "",
          "type": "uint256"
        }
      ],
      "stateMutability": "view",
      "type": "function"
    },
    {
      "inputs": [
        {
          "internalType": "uint256",
          "name": "_gameId",
          "type": "uint256"
        }
      ],
      "name": "acceptGame",
      "outputs": [],
      "stateMutability": "payable",
      "type": "function"
    },
    {
      "inputs": [
        {
          "internalType": "uint256",
          "name": "",
          "type": "uint256"
        }
      ],
      "name": "allGames",
      "outputs": [
        {
          "internalType": "uint256",
          "name": "gameId",
          "type": "uint256"
        },
        {
          "internalType": "address",
          "name": "initializer",
          "type": "address"
        },
        {
          "internalType": "address",
          "name": "opponent",
          "type": "address"
        },
        {
          "internalType": "uint256",
          "name": "betAmount",
          "type": "uint256"
        },
        {
          "internalType": "enum CoinFlip.GameStatus",
          "name": "status",
          "type": "uint8"
        },
        {
          "internalType": "uint256",
          "name": "pickingSide",
          "type": "uint256"
        },
        {
          "internalType": "address",
          "name": "winner",
          "type": "address"
        },
        {
          "internalType": "uint256",
          "name": "createdAt",
          "type": "uint256"
        }
      ],
      "stateMutability": "view",
      "type": "function"
    },
    {
      "inputs": [
        {
          "internalType": "uint256",
          "name": "_gameId",
          "type": "uint256"
        }
      ],
      "name": "cancelGame",
      "outputs": [],
      "stateMutability": "nonpayable",
      "type": "function"
    },
    {
      "inputs": [
        {
          "internalType": "address",
          "name": "_opponent",
          "type": "address"
        }
      ],
      "name": "createGame",
      "outputs": [],
      "stateMutability": "payable",
      "type": "function"
    },
    {
      "inputs": [
        {
          "internalType": "uint256",
          "name": "_gameId",
          "type": "uint256"
        },
        {
          "internalType": "uint256",
          "name": "_coinSide",
          "type": "uint256"
        }
      ],
      "name": "flipCoin",
      "outputs": [],
      "stateMutability": "nonpayable",
      "type": "function"
    },
    {
      "inputs": [],
      "name": "totalFinishedGameCount",
      "outputs": [
        {
          "internalType": "uint256",
          "name": "",
          "type": "uint256"
        }
      ],
      "stateMutability": "view",
      "type": "function"
    },
    {
      "inputs": [],
      "name": "totalGameCount",
      "outputs": [
        {
          "internalType": "uint256",
          "name": "",
          "type": "uint256"
        }
      ],
      "stateMutability": "view",
      "type": "function"
    }
  ],
  "bytecode": "0x6080604052348015600f57600080fd5b506118118061001f6000396000f3fe60806040526004361061007b5760003560e01c80639c82dd1f1161004e5780639c82dd1f1461010a578063a0b5509514610135578063a9c1b8d114610179578063cfbb04ff146101a45761007b565b8063474d0b5a14610080578063605bd5ff1461009c57806369958ab9146100b8578063999d2453146100e1575b600080fd5b61009a60048036038101906100959190610ea9565b6101cf565b005b6100b660048036038101906100b19190610f0c565b6104e1565b005b3480156100c457600080fd5b506100df60048036038101906100da9190610f0c565b610734565b005b3480156100ed57600080fd5b5061010860048036038101906101039190610f39565b6109be565b005b34801561011657600080fd5b5061011f610d27565b60405161012c9190610f88565b60405180910390f35b34801561014157600080fd5b5061015c60048036038101906101579190610f0c565b610d2d565b604051610170989796959493929190611029565b60405180910390f35b34801561018557600080fd5b5061018e610de2565b60405161019b9190610f88565b60405180910390f35b3480156101b057600080fd5b506101b9610de8565b6040516101c69190610f88565b60405180910390f35b60003411610212576040517f08c379a00000000000000000000000000000000000000000000000000000000081526004016102099061112a565b60405180910390fd5b3373ffffffffffffffffffffffffffffffffffffffff168173ffffffffffffffffffffffffffffffffffffffff1603610280576040517f08c379a000000000000000000000000000000000000000000000000000000000815260040161027790611196565b60405180910390fd5b600080815480929190610292906111e5565b9190505550600060405180610100016040528060005481526020013373ffffffffffffffffffffffffffffffffffffffff1681526020018373ffffffffffffffffffffffffffffffffffffffff168152602001348152602001600060038111156102ff576102fe610fb2565b5b815260200160008152602001600073ffffffffffffffffffffffffffffffffffffffff1681526020014281525090508060026000805481526020019081526020016000206000820151816000015560208201518160010160006101000a81548173ffffffffffffffffffffffffffffffffffffffff021916908373ffffffffffffffffffffffffffffffffffffffff16021790555060408201518160020160006101000a81548173ffffffffffffffffffffffffffffffffffffffff021916908373ffffffffffffffffffffffffffffffffffffffff1602179055506060820151816003015560808201518160040160006101000a81548160ff021916908360038111156104105761040f610fb2565b5b021790555060a0820151816005015560c08201518160060160006101000a81548173ffffffffffffffffffffffffffffffffffffffff021916908373ffffffffffffffffffffffffffffffffffffffff16021790555060e082015181600701559050508173ffffffffffffffffffffffffffffffffffffffff163373ffffffffffffffffffffffffffffffffffffffff166000547f87eba3a7460154c2af109dd99d6e57241a454feab681feb7ad514ea5c7f3e11234426040516104d592919061122d565b60405180910390a45050565b600060026000838152602001908152602001600020905060008160010160009054906101000a900473ffffffffffffffffffffffffffffffffffffffff16905060008260020160009054906101000a900473ffffffffffffffffffffffffffffffffffffffff1690506000836000015403610591576040517f08c379a0000000000000000000000000000000000000000000000000000000008152600401610588906112a2565b60405180910390fd5b600060038111156105a5576105a4610fb2565b5b8360040160009054906101000a900460ff1660038111156105c9576105c8610fb2565b5b14610609576040517f08c379a00000000000000000000000000000000000000000000000000000000081526004016106009061130e565b60405180910390fd5b8073ffffffffffffffffffffffffffffffffffffffff163373ffffffffffffffffffffffffffffffffffffffff1614610677576040517f08c379a000000000000000000000000000000000000000000000000000000000815260040161066e906113a0565b60405180910390fd5b826003015434146106bd576040517f08c379a00000000000000000000000000000000000000000000000000000000081526004016106b490611432565b60405180910390fd5b6106c78282610def565b836005018190555060018360040160006101000a81548160ff021916908360038111156106f7576106f6610fb2565b5b02179055508260050154847f69605db3b6fa8bc355d82e8c3ce84fc2805145c317d15b9de8b45839f440e2a660405160405180910390a350505050565b60006002600083815260200190815260200160002090506000816000015403610792576040517f08c379a0000000000000000000000000000000000000000000000000000000008152600401610789906112a2565b60405180910390fd5b600060038111156107a6576107a5610fb2565b5b8160040160009054906101000a900460ff1660038111156107ca576107c9610fb2565b5b1461080a576040517f08c379a00000000000000000000000000000000000000000000000000000000081526004016108019061130e565b60405180910390fd5b62015180816007015461081d9190611452565b42101561085f576040517f08c379a0000000000000000000000000000000000000000000000000000000008152600401610856906114d2565b60405180910390fd5b8060010160009054906101000a900473ffffffffffffffffffffffffffffffffffffffff1673ffffffffffffffffffffffffffffffffffffffff163373ffffffffffffffffffffffffffffffffffffffff16146108f1576040517f08c379a00000000000000000000000000000000000000000000000000000000081526004016108e890611564565b60405180910390fd5b8060010160009054906101000a900473ffffffffffffffffffffffffffffffffffffffff1673ffffffffffffffffffffffffffffffffffffffff166108fc82600301549081150290604051600060405180830381858888f1935050505015801561095f573d6000803e3d6000fd5b5060038160040160006101000a81548160ff0219169083600381111561098857610987610fb2565b5b0217905550817f681705fdbd93dba3b679fd712577e9a86d57c5551c520f8c74857deb57f9623f60405160405180910390a25050565b60018114806109cd5750600281145b610a0c576040517f08c379a0000000000000000000000000000000000000000000000000000000008152600401610a03906115d0565b60405180910390fd5b60006002600084815260200190815260200160002090506000816000015403610a6a576040517f08c379a0000000000000000000000000000000000000000000000000000000008152600401610a61906112a2565b60405180910390fd5b60016003811115610a7e57610a7d610fb2565b5b8160040160009054906101000a900460ff166003811115610aa257610aa1610fb2565b5b14610ae2576040517f08c379a0000000000000000000000000000000000000000000000000000000008152600401610ad99061130e565b60405180910390fd5b60008160010160009054906101000a900473ffffffffffffffffffffffffffffffffffffffff16905060008260020160009054906101000a900473ffffffffffffffffffffffffffffffffffffffff1690506000806001856005015414610b4a578284610b4d565b83835b915091506001856005015414610b635782610b65565b835b73ffffffffffffffffffffffffffffffffffffffff163373ffffffffffffffffffffffffffffffffffffffff1614610bd2576040517f08c379a0000000000000000000000000000000000000000000000000000000008152600401610bc990611662565b60405180910390fd5b600060028660030154610be59190611682565b90506000610bf38686610def565b90506000888214610c045783610c06565b845b90508073ffffffffffffffffffffffffffffffffffffffff166108fc849081150290604051600060405180830381858888f19350505050158015610c4e573d6000803e3d6000fd5b50808860060160006101000a81548173ffffffffffffffffffffffffffffffffffffffff021916908373ffffffffffffffffffffffffffffffffffffffff16021790555060028860040160006101000a81548160ff02191690836003811115610cba57610cb9610fb2565b5b021790555060016000815480929190610cd2906111e5565b91905055508073ffffffffffffffffffffffffffffffffffffffff168a7fb7f35e624e036288272fbf3342c09219261ff29fdddd826989b289134e9ae53560405160405180910390a350505050505050505050565b60005481565b60026020528060005260406000206000915090508060000154908060010160009054906101000a900473ffffffffffffffffffffffffffffffffffffffff16908060020160009054906101000a900473ffffffffffffffffffffffffffffffffffffffff16908060030154908060040160009054906101000a900460ff16908060050154908060060160009054906101000a900473ffffffffffffffffffffffffffffffffffffffff16908060070154905088565b60015481565b6201518081565b60008042448585604051602001610e09949392919061172d565b6040516020818303038152906040528051906020012060001c90506001600282610e3391906117aa565b610e3d9190611452565b91505092915050565b600080fd5b600073ffffffffffffffffffffffffffffffffffffffff82169050919050565b6000610e7682610e4b565b9050919050565b610e8681610e6b565b8114610e9157600080fd5b50565b600081359050610ea381610e7d565b92915050565b600060208284031215610ebf57610ebe610e46565b5b6000610ecd84828501610e94565b91505092915050565b6000819050919050565b610ee981610ed6565b8114610ef457600080fd5b50565b600081359050610f0681610ee0565b92915050565b600060208284031215610f2257610f21610e46565b5b6000610f3084828501610ef7565b91505092915050565b60008060408385031215610f5057610f4f610e46565b5b6000610f5e85828601610ef7565b9250506020610f6f85828601610ef7565b9150509250929050565b610f8281610ed6565b82525050565b6000602082019050610f9d6000830184610f79565b92915050565b610fac81610e6b565b82525050565b7f4e487b7100000000000000000000000000000000000000000000000000000000600052602160045260246000fd5b60048110610ff257610ff1610fb2565b5b50565b600081905061100382610fe1565b919050565b600061101382610ff5565b9050919050565b61102381611008565b82525050565b60006101008201905061103f600083018b610f79565b61104c602083018a610fa3565b6110596040830189610fa3565b6110666060830188610f79565b611073608083018761101a565b61108060a0830186610f79565b61108d60c0830185610fa3565b61109a60e0830184610f79565b9998505050505050505050565b600082825260208201905092915050565b7f42657420616d6f756e74206d7573742062652067726561746572207468616e2060008201527f3000000000000000000000000000000000000000000000000000000000000000602082015250565b60006111146021836110a7565b915061111f826110b8565b604082019050919050565b6000602082019050818103600083015261114381611107565b9050919050565b7f596f752063616e6e6f7420706c617920616761696e737420796f757273656c66600082015250565b60006111806020836110a7565b915061118b8261114a565b602082019050919050565b600060208201905081810360008301526111af81611173565b9050919050565b7f4e487b7100000000000000000000000000000000000000000000000000000000600052601160045260246000fd5b60006111f082610ed6565b91507fffffffffffffffffffffffffffffffffffffffffffffffffffffffffffffffff8203611222576112216111b6565b5b600182019050919050565b60006040820190506112426000830185610f79565b61124f6020830184610f79565b9392505050565b7f47616d6520646f6573206e6f7420657869737400000000000000000000000000600082015250565b600061128c6013836110a7565b915061129782611256565b602082019050919050565b600060208201905081810360008301526112bb8161127f565b9050919050565b7f496e76616c69642067616d652073746174757300000000000000000000000000600082015250565b60006112f86013836110a7565b9150611303826112c2565b602082019050919050565b60006020820190508181036000830152611327816112eb565b9050919050565b7f4f6e6c79207468652064657369676e61746564206f70706f6e656e742063616e60008201527f20706c6179000000000000000000000000000000000000000000000000000000602082015250565b600061138a6025836110a7565b91506113958261132e565b604082019050919050565b600060208201905081810360008301526113b98161137d565b9050919050565b7f42657420616d6f756e74206d757374206d617463682074686520696e6974696160008201527f6c697a6572277320626574000000000000000000000000000000000000000000602082015250565b600061141c602b836110a7565b9150611427826113c0565b604082019050919050565b6000602082019050818103600083015261144b8161140f565b9050919050565b600061145d82610ed6565b915061146883610ed6565b92508282019050808211156114805761147f6111b6565b5b92915050565b7f47616d6520686173206e6f742065787069726564207965740000000000000000600082015250565b60006114bc6018836110a7565b91506114c782611486565b602082019050919050565b600060208201905081810360008301526114eb816114af565b9050919050565b7f4f6e6c792074686520696e697469616c697a65722063616e2063616e63656c2060008201527f7468652067616d65000000000000000000000000000000000000000000000000602082015250565b600061154e6028836110a7565b9150611559826114f2565b604082019050919050565b6000602082019050818103600083015261157d81611541565b9050919050565b7f496e76616c696420636f696e2073696465000000000000000000000000000000600082015250565b60006115ba6011836110a7565b91506115c582611584565b602082019050919050565b600060208201905081810360008301526115e9816115ad565b9050919050565b7f4f6e6c79207468652070726564657465726d696e6564207069636b696e67207360008201527f6964652063616e20666c69702074686520636f696e0000000000000000000000602082015250565b600061164c6035836110a7565b9150611657826115f0565b604082019050919050565b6000602082019050818103600083015261167b8161163f565b9050919050565b600061168d82610ed6565b915061169883610ed6565b92508282026116a681610ed6565b915082820484148315176116bd576116bc6111b6565b5b5092915050565b6000819050919050565b6116df6116da82610ed6565b6116c4565b82525050565b60008160601b9050919050565b60006116fd826116e5565b9050919050565b600061170f826116f2565b9050919050565b61172761172282610e6b565b611704565b82525050565b600061173982876116ce565b60208201915061174982866116ce565b6020820191506117598285611716565b6014820191506117698284611716565b60148201915081905095945050505050565b7f4e487b7100000000000000000000000000000000000000000000000000000000600052601260045260246000fd5b60006117b582610ed6565b91506117c083610ed6565b9250826117d0576117cf61177b565b5b82820690509291505056fea26469706673582212204327f66a836cb6ee42acd5d3d95c392587acd9778d1935121e63570cd5659ec164736f6c634300081b0033",
  "linkReferences": {},
  "deployedLinkReferences": {}
}